S00B0000536F732E73726563E4
S11300000C942A000C9447000C9447000C9447006D
S11300100C944C070C9447000C9447000C9425074F
S11300200C9447000C9447000C94FE060C94470073
S11300300C9447000C9447000C9447000C94470020
S11300400C9447000C9447000C9447000C94470010
S11300500C94470011241FBECFE5D8E0DEBFCDBF0E
S113006010E0A0E6B0E0E2E6FFE002C005900D92E9
S1130070A837B107D9F720E0A8E7B0E001C01D9286
S1130080AF3EB207E1F70E94FF010C94AF070C9456
S11300900000FC01892B29F18081843020F59281B4
S11300A09F3F19F5813059F028F0823071F0833088
S11300B091F01DC02AB39181922B9ABB089597B3F6
S11300C08181892B87BB80E0089594B38181892B3A
S11300D084BB80E0089591B38181892B81BB80E04A
S11300E0089581E0089581E0089581E0089580E015
S11300F008958430E0F4813059F028F0823069F0BA
S1130100833081F016C08BB368276BBB80E0089501
S113011088B3682768BB80E0089585B3682765BB0A
S113012080E0089582B3682762BB80E0089581E08F
S1130130089580E00895E0EDF0E089ED90E01192FB
S1130140E817F907E1F780E008951F93CF93DF9351
S113015040E050E060E270E012E0C1E0D3E0CB01A7
S1130160042E02C0880F991F0A94E2F784BB80957D
S113017085BBFA01E053FF4F22E030E083B390E007
S1130180022E02C0959587950A94E2F780FD0DC072
S11301908081823041F0833021F0811113C0D083FB
S11301A011C0C0830FC0C0830DC08081823049F06C
S11301B0833019F0813031F402C0108203C01083FF
S11301C001C010822F5F3F4F339625303105B1F6C1
S11301D04F5F5F4F4330510511F6DF91CF911F916F
S11301E00895E82FF0E0E053FF4F80810895CF9306
S11301F0C82FD998DA986FE070E080E090E00E9410
S11302000903DB9A6FE070E080E090E00E9409034C
S11302108BB38F709C2F907F892B8BBB6FE070E02A
S113022080E090E00E940903DB986FE070E080E0DA
S113023090E00E940903DB9A6FE070E080E090E0B8
S11302400E9409038BB3282F2F7030E1C39FC00194
S11302501124822B8BBB6FE070E080E090E00E9461
S11302600903DB986FE070E080E090E00E940903EE
S1130270CF910895CF93C82FD99ADA986FE070E0A0
S113028080E090E00E940903DB9A6FE070E080E078
S113029090E00E9409038BB38F709C2F907F892B71
S11302A08BBB6FE070E080E090E00E940903DB9874
S11302B06FE070E080E090E00E940903DB9A6FE059
S11302C070E080E090E00E9409038BB3282F2F7028
S11302D030E1C39FC0011124822B8BBB6FE070E01F
S11302E080E090E00E940903DB986FE070E080E01A
S11302F090E00E940903CF9108958AB38E608ABB6F
S11303008AB3806F8ABB82E00E94F70088E20E9471
S1130310F7008CE00E94F70081E00E94F700089546
S1130320CF93DF93EC018881882331F021960E94DA
S11303303A0189918111FBCFDF91CF9108950F93F9
S11303401F930AE010E020E030E049ED50E00E9405
S1130350700289ED90E00E9490011F910F91089521
S113036060E181E00E947900089560E281E00E94EA
S1130370790008956091810070E080E090E00E942F
S11303809F010895CF92DF92EF920F931F93CF9323
S1130390DF930F2EF8E7CF2EF0E0DF2EF02DC0E034
S11303A0D1E08C2F0E94F100811117C0F6018081E9
S11303B08130B9F410828C0F809381000F2EF3E00A
S11303C0EF2EF02D00E010E0980140E050E0BA017B
S11303D08AEB91E00E94BF0504C0813011F4F6015C
S11303E0D083CF5FFFEFCF1ADF0AC930D1F6DF9198
S11303F0CF911F910F91EF90DF90CF900895EF92DE
S11304000F931F93CF93DF93CDB7DEB728970FB623
S1130410F894DEBF0FBECDBF78940E947D010E9488
S11304209B0081E089838FEF8A838B83CE010196C1
S11304300E9449001C8281E090E0A0E0B0E08D833E
S11304409E83AF83B887CE0104960E9428030F2EA3
S1130450F5E0EF2EF02D08EE13E020E030E048EE5A
S113046053E060E070E080EB91E00E94BF0508EE8D
S113047013E020E030E044EF51E060E070E085EB11
S113048091E00E94BF05EE24E3940EE110E020E029
S113049030E04EE150E060E070E085EA90E00E94D8
S11304A0BF056894EE24E1F808EC10E020E030E0A9
S11304B048EC50E060E070E082EC91E00E94BF05FF
S11304C00E94AD0380E090E028960FB6F894DEBF5A
S11304D00FBECDBFDF91CF911F910F91EF90089583
S11304E04F925F926F927F928F929F92AF92BF9240
S11304F0CF92DF92EF92FF920F931F93CF93DF93EC
S1130500CDB7DEB77A0128013901CDB6DEB6611563
S113051071058105910531F480E3DA018C93882417
S113052083945DC0912C01C0982C062FB72E182FF0
S1130530A92EA30192010E947307F701E90DF11D91
S11305406A3010F0695C01C0605D6083602F7B2DB0
S1130550812F9A2DA30192010E947307CA01B90148
S113056088248394890C232B242B252BE9F6ADB600
S1130570BEB6682D70E0EDB7FEB7E61BF70B0FB6FD
S1130580F894FEBF0FBEEDBF0DB71EB70F5F1F4F30
S11305908820E1F037019801260F371F892D90E05C
S11305A00196A701480F591FF7019190D9019E9216
S11305B09D01E417F507C9F7F801080F191F919178
S11305C0D3019D933D010E171F07C9F70FB6F89489
S11305D0BEBE0FBEADBEF701E60FF71F1082F701D6
S11305E0E80DF11D10820FB6F894DEBE0FBECDBE2D
S11305F0DF91CF911F910F91FF90EF90DF90CF90FB
S1130600BF90AF909F908F907F906F905F904F902E
S11306100895611571058105910529F061507109ED
S113062081099109D9F708958091870090918800F4
S1130630A0918900B0918A000196A11DB11D8093FB
S1130640870090938800A0938900B0938A0008954E
S11306508F929F92AF92BF92FF920F931F93CF936B
S1130660DF9300D000D000D0CDB7DEB78C01892B4A
S113067009F459C08091820081115AC0EBE8F0E07E
S113068027EC30E091E011821082128213821482EE
S11306901582168217821086118692873C96E2177D
S11306A0F30789F71092870010928800109289004E
S11306B010928A0010928300109284001092850098
S11306C010928600F80181809280A380B48080819A
S11306D089831A8281E08B8387E08C8384E193E0B1
S11306E09E838D83CE0101960E940C06F82E811103
S11306F023C0A8EEB3E0A50194010E949507DC0194
S1130700CB01689415F8B695A79597958795169497
S1130710D1F7682F70E0F80180810E94B40681E06F
S11307208093820009C00F2EF0ECFF2EF02D04C040
S11307300F2EF1ECFF2EF02D8F2D26960FB6F89488
S1130740DEBF0FBECDBFDF91CF911F910F91FF9000
S1130750BF90AF909F908F9008952F923F924F92A9
S11307605F926F927F928F929F92AF92BF92CF923D
S1130770DF92EF92FF920F931F93CF93DF93CDB746
S1130780DEB72C970FB6F894DEBF0FBECDBF8091B5
S11307908200813009F0D9C179C1E985FA851F0148
S11307A0FC87EB87D1011B968C919385981708F0F1
S11307B03FC0AB85BC850D911C9111971A96DC90B6
S11307C01A9712968D909D90AD90BC9015971696A1
S11307D04D915D916D917C911997E080F180119616
S11307E0FC92EE92F2841A96FC921A9742805380FD
S11307F06480758012964D925D926D927C921597ED
S1130800468057806084718416964D925D926D92F5
S11308107C9219971B969C9311830083D2868282C3
S11308209382A482B58246835783608771878387C6
S11308303C96E217F30709F0B5CF3A862986498139
S11308405A816B817C814F5F5F4F6F4F7F4F49832C
S11308505A836B837C8369857A85645F7F4F7A874B
S1130860698789819A81AB81BC814D815E816F8169
S1130870788584179507A607B70709F43BC18D81CE
S11308809E81AF81B88549815A816B817C814817EB
S113089059076A077B0708F480CFD1CFF401EE0F24
S11308A0FF1FE80DF91DEE0FFF1FEE0FFF1FE557A9
S11308B0FF4F0190F081E02D309709F4D3C0D401AB
S11308C0AA0FBB1FA80DB91DAA0FBB1FAA0FBB1FE0
S11308D0A557BF4F12968D919D910D90BC91A02D5F
S11308E00097A105B10509F0ABC0B401660F771FED
S11308F07A836983DB01A80DB91DAA0FBB1FAA0F58
S1130900BB1FA557BF4F1A96CC920995E981FA816E
S1130910E80DF91DEE0FFF1FEE0FFF1FE557FF4F08
S113092086819781A085B185E981FA81E80DF91D59
S1130930EE0FFF1FEE0FFF1FE557FF4F82839383D8
S1130940A483B583E981FA81E80DF91DEE0FFF1F39
S1130950EE0FFF1FE557FF4F1286892B8A2B8B2B37
S113096009F080C0D501C4010196A11DB11D4090BC
S113097083005090840060908500709086008415F8
S11309809505A605B70508F048C09C01220F331F42
S1130990820F931F880F991F880F991FDC01A55799
S11309A0BF4FF401EE0FFF1FE80DF91DEE0FFF1FFF
S11309B0EE0FFF1FE557FF4FC201880F991F840DEB
S11309C0951D880F991F880F991F81589F4F2D914E
S11309D03C911197318320831A962C911A97228780
S11309E012964D915D916D917C911597428353833D
S11309F06483758316964D915D916D917C911997E1
S1130A0046835783608771871B962C911B97238796
S1130A101C963C96E817F907D1F671E0871A9108FD
S1130A20A108B10881E0481A510861087108409290
S1130A30830050928400609285007092860012C0F8
S1130A40F401EE0FFF1FE80DF91DEE0FFF1FEE0F6F
S1130A50FF1FE557FF4F0197A109B10982839383D3
S1130A60A483B5839FEF891A990AA90AB90A8091C8
S1130A70830090918400A0918500B091860088162F
S1130A809906AA06BB0608F409CF03C06894CC24CF
S1130A90C1F88091870090918800A0918900B0915D
S1130AA08A00892B8A2B8B2BA1F3409183005091D0
S1130AB0840060918500709186004D835E836F830E
S1130AC07887411551056105710559F16BE870E0AE
S1130AD09A01220F331F240F351F220F331F220FB9
S1130AE0331F25573F4F19821A821B821C827A8733
S1130AF06987C5CE8091870090918800A091890074
S1130B00B0918A000197A109B1098093870090935D
S1130B108800A0938900B0938A00812C912C540101
S1130B20BDCE8091870090918800A0918900B091FA
S1130B308A000197A109B1098093870090938800E6
S1130B40A0938900B0938A00A4CF82EC2C960FB6B0
S1130B50F894DEBF0FBECDBFDF91CF911F910F91EF
S1130B60FF90EF90DF90CF90BF90AF909F908F90C9
S1130B707F906F905F904F903F902F9008958F9249
S1130B809F92AF92BF92EF920F931F93FC014A0181
S1130B905B01892BA9F110929500609183007091FB
S1130BA084008091850090918600AB01440F551F0D
S1130BB0DA01A60FB71FAA0FBB1FAA0FBB1FA557A9
S1130BC0BF4F1196FC93EE93FD0182829382A4821F
S1130BD0B582FD010683178320873187FD01E386F3
S1130BE04B015C012FEF821A920AA20AB20A809288
S1130BF0830090928400A0928500B092860004C085
S1130C0061E070E080E090E01F910F91EF90BF9061
S1130C10AF909F908F900895CF93DF93FC018381D1
S1130C20833029F061E0853019F060E001C061E0B3
S1130C309081292F30E0D901AA0FBB1FA653BF4FC3
S1130C404D915C91452B09F07DC04481558141153E
S1130C50510509F479C0309709F478C0933008F04D
S1130C6077C07181733008F075C07281723008F0FA
S1130C7073C0883008F072C0923018F4613009F4FF
S1130C806FC0220F331FD901A751BF4F4D935C93FF
S1130C9081818130E1F018F0823021F12DC0808112
S1130CA090E0EC01CC0FDD1FC653DF4F2381DC0144
S1130CB0AA0FBB1FAA0FBB1FAA0FBB1FA05ABF4F6F
S1130CC0A20FB11D8C9190E09983888315C0A081F7
S1130CD0B0E0AA0FBB1FA653BF4F86E090E08D93F0
S1130CE09C930AC0A081B0E0AA0FBB1FA653BF4FBC
S1130CF087E090E08D939C9382818130D9F4808148
S1130D00813059F018F0823079F014C083B78860CC
S1130D1083BF89B7826089BF0DC08EB588608EBDE0
S1130D2089B7806189BF06C085B5886085BD89B7EC
S1130D30806889BFE081F0E0E953FF4F81E0808360
S1130D4080E00FC081E00DC081E00BC081E009C0EC
S1130D5081E007C081E005C081E003C081E001C0FB
S1130D6081E0DF91CF910895982F282F30E0F90189
S1130D70E953FF4F8081813009F03EC09330E8F59C
S1130D806F3F710521F018F0492F4D7FB1F191307B
S1130D9089F018F09230E9F028C012BE6CBF83B716
S1130DA0887FF901EE0FFF1FE653FF4F9081892BD7
S1130DB083BF1BC01DBC1CBC7BBD6ABD8EB5887FB8
S1130DC0F901EE0FFF1FE653FF4F9081892B8EBD73
S1130DD00CC014BC63BD85B5887FF901EE0FFF1FFD
S1130DE0E653FF4F9081892B85BDF901E953FF4FED
S1130DF082E0808380E0089581E008951F920F923D
S1130E000FB60F9211242F933F934F935F936F93D9
S1130E107F938F939F93AF93BF93EF93FF93E0914F
S1130E20E900F091EA000995FF91EF91BF91AF912C
S1130E309F918F917F916F915F914F913F912F91EE
S1130E400F900FBE0F901F9018951F920F920FB620
S1130E500F9211242F933F934F935F936F937F933C
S1130E608F939F93AF93BF93EF93FF93E091EB0026
S1130E70F091EC000995FF91EF91BF91AF919F9193
S1130E808F917F916F915F914F913F912F910F902F
S1130E900FBE0F901F9018951F920F920FB60F92CE
S1130EA011242F933F934F935F936F937F938F936B
S1130EB09F93AF93BF93EF93FF93E091ED00F09175
S1130EC0EE000995FF91EF91BF91AF919F918F91A2
S1130ED07F916F915F914F913F912F910F900FBE32
S1130EE00F901F901895A1E21A2EAA1BBB1BFD019F
S1130EF00DC0AA1FBB1FEE1FFF1FA217B307E407F5
S1130F00F50720F0A21BB30BE40BF50B661F771F4C
S1130F10881F991F1A9469F760957095809590952C
S1130F209B01AC01BD01CF0108950E94A007A59FBC
S1130F30900DB49F900DA49F800D911D11240895D0
S1130F40A29FB001B39FC001A39F700D811D112406
S1130F50911DB29F700D811D1124911D0895F89467
S1050F60FFCFBD
S1130F62000102000300040500010200030004055D
S10B0F72000102030405060757
S9030000FC
