:100000000C942A000C9447000C9447000C94470071
:100010000C9445070C9447000C9447000C941E0761
:100020000C9447000C9447000C94F7060C9447007E
:100030000C9447000C9447000C9447000C94470024
:100040000C9447000C9447000C9447000C94470014
:100050000C94470011241FBECFE5D8E0DEBFCDBF12
:1000600010E0A0E6B0E0ECE8F2E102C005900D92ED
:10007000AA38B107D9F720E0AAE8B0E001C01D9284
:10008000AA3FB207E1F70E94E7010C9444090C94DF
:1000900000000097A9F0FC012081222319F02130F3
:1000A00019F003C0339801C0339A26B1FC01828154
:1000B000822B86B9379A81E080938A0080E0089588
:1000C0008CEA08958830A0F490918A00992391F0E9
:1000D00097B1987F8770892B87B9369A349BFECF6A
:1000E000349A84B195B1FB019183808380E00895B7
:1000F0008FEA08958EEA0895FC01892B29F1808109
:10010000843020F592819F3F19F5813059F028F015
:10011000823071F0833091F01DC02AB39181922B0F
:100120009ABB089597B38181892B87BB80E008959E
:1001300094B38181892B84BB80E0089591B3818140
:10014000892B81BB80E0089581E0089581E00895C6
:1001500081E0089580E008958430E0F4813059F022
:1001600028F0823069F0833081F016C08BB36827A5
:100170006BBB80E0089588B3682768BB80E0089572
:1001800085B3682765BB80E0089582B3682762BBAA
:1001900080E0089581E0089580E00895EBEDF0E0BF
:1001A00084EE90E01192E817F907E1F780E00895F6
:1001B000CF93C82F919892986CED75E080E090E015
:1001C0000E940203939A6CED75E080E090E00E943B
:1001D000020382B38F709C2F907F892B82BB6CEDC2
:1001E00075E080E090E00E94020393986CED75E06A
:1001F00080E090E00E940203939A6CED75E080E04D
:1002000090E00E94020382B3282F2F7030E1C39F39
:10021000C0011124822B82BB6CED75E080E090E080
:100220000E94020393986CED75E080E090E00E94DC
:100230000203CF910895CF93C82F919A92986CEDB5
:1002400075E080E090E00E940203939A6CED75E007
:1002500080E090E00E94020382B38F709C2F907F19
:10026000892B82BB6CED75E080E090E00E94020378
:1002700093986CED75E080E090E00E940203939A01
:100280006CED75E080E090E00E94020382B3282FBD
:100290002F7030E1C39FC0011124822B82BB6CED13
:1002A00075E080E090E00E94020393986CED75E0A9
:1002B00080E090E00E940203CF91089581B38E60A8
:1002C00081BB81B3806F81BB82E00E94D80088E24D
:1002D0000E94D8008CE00E94D80081E00E94D800E3
:1002E0000895CF93DF93EC018881882331F0219624
:1002F0000E941B0189918111FBCFDF91CF9108955D
:10030000813041F028F0823041F0833049F00AC05A
:10031000962F08C090E4960F05C090E1960F02C09A
:1003200090E5960F892F80680E94D80008950F935A
:100330001F930AE010E020E030E044EE50E00E941D
:10034000690284EE90E00E9471011F910F9108955F
:1003500060E181E00E94AC00089560E281E00E94CB
:10036000AC0008956BE870E085E00E94620008959B
:1003700060918B0070918C0080E090E00E940D08ED
:1003800026EF38E24CE950E40E949B0820E030E080
:1003900040E251E40E946C070E94DE0770938C00DB
:1003A00060938B0067E080E00E94800186E690E029
:1003B0000E94710167E080E00E94800160918B00E3
:1003C00070918C0080E090E00E9497010895EF9278
:1003D0000F931F93CF93DF93CDB7DEB72E970FB652
:1003E000F894DEBF0FBECDBF789486E0E0E6F0E083
:1003F000DE01119601900D928A95E1F7CE010196EA
:100400000E9449000E945E010E94CE008BE690E0AF
:100410000E94710181E08F838FEF88878987CE01E9
:1004200007960E947C001A8681E090E0A0E0B0E090
:100430008B879C87AD87BE87CE010A960E942103D9
:100440000F2EF5E0EF2EF02D08EE13E020E030E067
:1004500048EE53E060E070E088EA91E00E94B80561
:1004600008EE13E020E030E044EF51E060E070E09F
:100470008DEA91E00E94B805EE24E39408EE13E0C3
:1004800020E030E048EE53E060E070E082EB91E085
:100490000E94B8056894EE24E1F808EE13E020E02D
:1004A00030E048EE53E060E070E088EB91E00E94BD
:1004B000B8050E94A60380E090E02E960FB6F8944F
:1004C000DEBF0FBECDBFDF91CF911F910F91EF9097
:1004D00008954F925F926F927F928F929F92AF9208
:1004E000BF92CF92DF92EF92FF920F931F93CF9321
:1004F000DF93CDB7DEB77A0128013901CDB6DEB67C
:10050000611571058105910531F480E3DA018C9361
:10051000882483945DC0912C01C0982C062FB72E9F
:10052000182FA92EA30192010E940809F701E90DD5
:10053000F11D6A3010F0695C01C0605D6083602F5E
:100540007B2D812F9A2DA30192010E940809CA01D7
:10055000B90188248394890C232B242B252BE9F6BD
:10056000ADB6BEB6682D70E0EDB7FEB7E61BF70B73
:100570000FB6F894FEBF0FBEEDBF0DB71EB70F5FED
:100580001F4F8820E1F037019801260F371F892D72
:1005900090E00196A701480F591FF7019190D901EA
:1005A0009E929D01E417F507C9F7F801080F191F7E
:1005B0009191D3019D933D010E171F07C9F70FB607
:1005C000F894BEBE0FBEADBEF701E60FF71F108256
:1005D000F701E80DF11D10820FB6F894DEBE0FBED4
:1005E000CDBEDF91CF911F910F91FF90EF90DF90E3
:1005F000CF90BF90AF909F908F907F906F905F90C3
:100600004F900895611571058105910529F061509C
:10061000710981099109D9F708958091920090910B
:100620009300A0919400B09195000196A11DB11D79
:100630008093920090939300A0939400B0939500C0
:1006400008958F929F92AF92BF92FF920F931F9344
:10065000CF93DF9300D000D000D0CDB7DEB78C01B0
:10066000892B09F459C080918D0081115AC0E6E9A7
:10067000F0E022ED30E091E01182108212821382CC
:1006800014821582168217821086118692873C96F4
:10069000E217F30789F710929200109293001092DC
:1006A00094001092950010928E0010928F0010927C
:1006B000900010929100F80181809280A380B48014
:1006C000808189831A8281E08B8387E08C838DE02F
:1006D00093E09E838D83CE0101960E940506F82E3D
:1006E000811123C0A8EEB3E0A50194010E942A095C
:1006F000DC01CB01689415F8B695A7959795879579
:100700001694D1F7682F70E0F80180810E94AD0641
:1007100081E080938D0009C00F2EF0ECFF2EF02DAC
:1007200004C00F2EF1ECFF2EF02D8F2D26960FB664
:10073000F894DEBF0FBECDBFDF91CF911F910F9117
:10074000FF90BF90AF909F908F9008952F923F920F
:100750004F925F926F927F928F929F92AF92BF92D1
:10076000CF92DF92EF92FF920F931F93CF93DF937D
:10077000CDB7DEB72C970FB6F894DEBF0FBECDBF56
:1007800080918D00813009F0D9C179C1E985FA8560
:100790001F01FC87EB87D1011B968C9193859817DD
:1007A00008F03FC0AB85BC850D911C9111971A963E
:1007B000DC901A9712968D909D90AD90BC901597F5
:1007C00016964D915D916D917C911997E080F18025
:1007D0001196FC92EE92F2841A96FC921A9742803D
:1007E00053806480758012964D925D926D927C92DA
:1007F0001597468057806084718416964D925D925D
:100800006D927C9219971B969C9311830083D286DC
:1008100082829382A482B5824683578360877187E0
:1008200083873C96E217F30709F0B5CF3A8629860D
:1008300049815A816B817C814F5F5F4F6F4F7F4F42
:1008400049835A836B837C8369857A85645F7F4F94
:100850007A87698789819A81AB81BC814D815E816C
:100860006F81788584179507A607B70709F43BC100
:100870008D819E81AF81B88549815A816B817C8150
:10088000481759076A077B0708F480CFD1CFF401D6
:10089000EE0FFF1FE80DF91DEE0FFF1FEE0FFF1FFC
:1008A000EA56FF4F0190F081E02D309709F4D3C054
:1008B000D401AA0FBB1FA80DB91DAA0FBB1FAA0FF9
:1008C000BB1FAA56BF4F12968D919D910D90BC9162
:1008D000A02D0097A105B10509F0ABC0B401660FCA
:1008E000771F7A836983DB01A80DB91DAA0FBB1F8F
:1008F000AA0FBB1FAA56BF4F1A96CC920995E98141
:10090000FA81E80DF91DEE0FFF1FEE0FFF1FEA56EB
:10091000FF4F86819781A085B185E981FA81E80D35
:10092000F91DEE0FFF1FEE0FFF1FEA56FF4F8283E8
:100930009383A483B583E981FA81E80DF91DEE0F55
:10094000FF1FEE0FFF1FEA56FF4F1286892B8A2BDF
:100950008B2B09F080C0D501C4010196A11DB11DEA
:1009600040908E0050908F006090900070909100A9
:1009700084159505A605B70508F048C09C01220F0F
:10098000331F820F931F880F991F880F991FDC0157
:10099000AA56BF4FF401EE0FFF1FE80DF91DEE0F31
:1009A000FF1FEE0FFF1FEA56FF4FC201880F991F6E
:1009B000840D951D880F991F880F991F86579F4F8B
:1009C0002D913C911197318320831A962C911A977F
:1009D000228712964D915D916D917C91159742837E
:1009E00053836483758316964D915D916D917C91CF
:1009F000199746835783608771871B962C911B97A5
:100A000023871C963C96E817F907D1F671E0871A00
:100A10009108A108B10881E0481A510861087108DD
:100A200040928E0050928F006092900070929100E0
:100A300012C0F401EE0FFF1FE80DF91DEE0FFF1FAE
:100A4000EE0FFF1FEA56FF4F0197A109B1098283FC
:100A50009383A483B5839FEF891A990AA90AB90AD7
:100A600080918E0090918F00A0919000B0919100A4
:100A700088169906AA06BB0608F409CF03C0689435
:100A8000CC24C1F88091920090919300A0919400A1
:100A9000B0919500892B8A2B8B2BA1F340918E006E
:100AA00050918F0060919000709191004D835E8312
:100AB0006F837887411551056105710559F166E924
:100AC00070E09A01220F331F240F351F220F331FAE
:100AD000220F331F2A563F4F19821A821B821C8213
:100AE0007A876987C5CE8091920090919300A091FA
:100AF0009400B09195000197A109B10980939200EB
:100B000090939300A0939400B0939500812C912C26
:100B10005401BDCE8091920090919300A0919400D9
:100B2000B09195000197A109B1098093920090932B
:100B30009300A0939400B0939500A4CF82EC2C96E0
:100B40000FB6F894DEBF0FBECDBFDF91CF911F91DE
:100B50000F91FF90EF90DF90CF90BF90AF909F905C
:100B60008F907F906F905F904F903F902F9008955F
:100B70008F929F92AF92BF92EF920F931F93FC01BF
:100B80004A015B01892BA9F11092A00060918E00AF
:100B900070918F008091900090919100AB01440F73
:100BA000551FDA01A60FB71FAA0FBB1FAA0FBB1F45
:100BB000AA56BF4F1196FC93EE93FD018282938259
:100BC000A482B582FD010683178320873187FD014A
:100BD000E3864B015C012FEF821A920AA20AB20A45
:100BE00080928E0090928F00A0929000B09291001F
:100BF00004C061E070E080E090E01F910F91EF9001
:100C0000BF90AF909F908F900895CF93DF93FC019A
:100C10008381833029F061E0853019F060E001C004
:100C200061E09081292F30E0D901AA0FBB1FAB52A0
:100C3000BF4F4D915C91452B09F07DC0448155819A
:100C40004115510509F479C0309709F478C0933003
:100C500008F077C07181733008F075C0728172300E
:100C600008F073C0883008F072C0923018F4613018
:100C700009F46FC0220F331FD901AC50BF4F4D9301
:100C80005C9381818130E1F018F0823021F12DC038
:100C9000808190E0EC01CC0FDD1FCB52DF4F238130
:100CA000DC01AA0FBB1FAA0FBB1FAA0FBB1FAE58A8
:100CB000BF4FA20FB11D8C9190E09983888315C01E
:100CC000A081B0E0AA0FBB1FAB52BF4F86E090E0FF
:100CD0008D939C930AC0A081B0E0AA0FBB1FAB52BA
:100CE000BF4F87E090E08D939C9382818130D9F44F
:100CF0008081813059F018F0823079F014C083B7C8
:100D0000886083BF89B7826089BF0DC08EB5886057
:100D10008EBD89B7806189BF06C085B5886085BDF5
:100D200089B7806889BFE081F0E0EE52FF4F81E033
:100D3000808380E00FC081E00DC081E00BC081E0C6
:100D400009C081E007C081E005C081E003C081E007
:100D500001C081E0DF91CF910895982F282F30E0D6
:100D6000F901EE52FF4F8081813009F03EC093308F
:100D7000E8F56F3F710521F018F0492F4D7FB1F173
:100D8000913089F018F09230E9F028C012BE6CBFA3
:100D900083B7887FF901EE0FFF1FEB52FF4F908161
:100DA000892B83BF1BC01DBC1CBC7BBD6ABD8EB51F
:100DB000887FF901EE0FFF1FEB52FF4F9081892BC7
:100DC0008EBD0CC014BC63BD85B5887FF901EE0FE4
:100DD000FF1FEB52FF4F9081892B85BDF901EE5229
:100DE000FF4F82E0808380E0089581E008951F92A4
:100DF0000F920FB60F9211242F933F934F935F934F
:100E00006F937F938F939F93AF93BF93EF93FF93D2
:100E1000E091F400F091F5000995FF91EF91BF91F9
:100E2000AF919F918F917F916F915F914F913F9182
:100E30002F910F900FBE0F901F9018951F920F9239
:100E40000FB60F9211242F933F934F935F936F939D
:100E50007F938F939F93AF93BF93EF93FF93E09113
:100E6000F600F091F7000995FF91EF91BF91AF91D6
:100E70009F918F917F916F915F914F913F912F91B2
:100E80000F900FBE0F901F9018951F920F920FB6E4
:100E90000F9211242F933F934F935F936F937F9300
:100EA0008F939F93AF93BF93EF93FF93E091F800DD
:100EB000F091F9000995FF91EF91BF91AF919F914A
:100EC0008F917F916F915F914F913F912F910F90F3
:100ED0000FBE0F901F9018950E9480070C94610818
:100EE0000E945A0858F00E94530840F029F45F3FCE
:100EF00029F00C944A0851110C9495080C94500850
:100F00000E94720868F39923B1F3552391F3951B5E
:100F1000550BBB27AA2762177307840738F09F5F1A
:100F20005F4F220F331F441FAA1FA9F335D00E2E87
:100F30003AF0E0E832D091505040E695001CCAF7F4
:100F40002BD0FE2F29D0660F771F881FBB1F2617B7
:100F500037074807AB07B0E809F0BB0B802DBF018E
:100F6000FF2793585F4F3AF09E3F510578F00C945D
:100F70004A080C9495085F3FE4F3983ED4F38695B5
:100F800077956795B795F7959F5FC9F7880F911D7E
:100F90009695879597F90895E1E0660F771F881F6A
:100FA000BB1F621773078407BA0720F0621B730B1D
:100FB000840BBA0BEE1F88F7E09508950E947A081B
:100FC00088F09F5798F0B92F9927B751B0F0E1F00A
:100FD000660F771F881F991F1AF0BA95C9F714C0BA
:100FE000B13091F00E949408B1E008950C949408F7
:100FF000672F782F8827B85F39F0B93FCCF38695F3
:1010000077956795B395D9F73EF49095809570954F
:1010100061957F4F8F4F9F4F0895E89409C097FBCC
:101020003EF490958095709561957F4F8F4F9F4FBF
:101030009923A9F0F92F96E9BB279395F695879503
:1010400077956795B795F111F8CFFAF4BB0F11F4C6
:1010500060FF1BC06F5F7F4F8F4F9F4F16C088236D
:1010600011F096E911C0772321F09EE8872F762FA3
:1010700005C0662371F096E8862F70E060E02AF0E4
:101080009A95660F771F881FDAF7880F96958795D0
:1010900097F9089597F99F6780E870E060E00895F8
:1010A0009FEF80EC089500240A9416161706180680
:1010B0000906089500240A9412161306140605065C
:1010C0000895092E0394000C11F4882352F0BB0FED
:1010D00040F4BF2B11F460FF04C06F5F7F4F8F4F50
:1010E0009F4F089557FD9058440F551F59F05F3F8B
:1010F00071F04795880F97FB991F61F09F3F79F03A
:1011000087950895121613061406551FF2CF4695BB
:10111000F1DF08C0161617061806991FF1CF86953D
:101120007105610508940895E894BB276627772721
:10113000CB0197F908950E94AE080C9461080E94B3
:10114000530838F00E945A0820F0952311F00C94AF
:101150004A080C94500811240C9495080E947208B7
:1011600070F3959FC1F3950F50E0551F629FF001FA
:10117000729FBB27F00DB11D639FAA27F00DB11D13
:10118000AA1F649F6627B00DA11D661F829F22279C
:10119000B00DA11D621F739FB00DA11D621F839F23
:1011A000A00D611D221F749F3327A00D611D231FF9
:1011B000849F600D211D822F762F6A2F11249F5747
:1011C00050409AF0F1F088234AF0EE0FFF1FBB1F4A
:1011D000661F771F881F91505040A9F79E3F510509
:1011E00080F00C944A080C9495085F3FE4F3983E15
:1011F000D4F3869577956795B795F795E7959F5FB3
:10120000C1F7FE2B880F911D9695879597F9089544
:10121000A1E21A2EAA1BBB1BFD010DC0AA1FBB1FFA
:10122000EE1FFF1FA217B307E407F50720F0A21B6C
:10123000B30BE40BF50B661F771F881F991F1A94D9
:1012400069F760957095809590959B01AC01BD0103
:10125000CF0108950E943509A59F900DB49F900D70
:10126000A49F800D911D11240895A29FB001B39FEA
:10127000C001A39F700D811D1124911DB29F700D9F
:0C128000811D1124911D0895F894FFCFEA
:10128C00000002010000202020200054656D703AFF
:10129C00200000010200030004050001020003000D
:0A12AC000405000102030405060713
:00000001FF
